{
  "contractName": "Payment",
  "abi": [
    {
      "anonymous": false,
      "inputs": [
        {
          "indexed": false,
          "internalType": "uint256",
          "name": "transactionId",
          "type": "uint256"
        },
        {
          "indexed": false,
          "internalType": "uint256",
          "name": "timestamp",
          "type": "uint256"
        }
      ],
      "name": "PaymentCompleted",
      "type": "event"
    },
    {
      "anonymous": false,
      "inputs": [
        {
          "indexed": false,
          "internalType": "uint256",
          "name": "transactionId",
          "type": "uint256"
        },
        {
          "indexed": true,
          "internalType": "address",
          "name": "sender",
          "type": "address"
        },
        {
          "indexed": true,
          "internalType": "address",
          "name": "receiver",
          "type": "address"
        },
        {
          "indexed": false,
          "internalType": "uint256",
          "name": "amount",
          "type": "uint256"
        }
      ],
      "name": "PaymentInitiated",
      "type": "event"
    },
    {
      "inputs": [],
      "name": "transactionCount",
      "outputs": [
        {
          "internalType": "uint256",
          "name": "",
          "type": "uint256"
        }
      ],
      "stateMutability": "view",
      "type": "function",
      "constant": true
    },
    {
      "inputs": [
        {
          "internalType": "uint256",
          "name": "",
          "type": "uint256"
        }
      ],
      "name": "transactions",
      "outputs": [
        {
          "internalType": "uint256",
          "name": "amount",
          "type": "uint256"
        },
        {
          "internalType": "address",
          "name": "sender",
          "type": "address"
        },
        {
          "internalType": "address",
          "name": "receiver",
          "type": "address"
        },
        {
          "internalType": "bool",
          "name": "completed",
          "type": "bool"
        },
        {
          "internalType": "uint256",
          "name": "timestamp",
          "type": "uint256"
        }
      ],
      "stateMutability": "view",
      "type": "function",
      "constant": true
    },
    {
      "inputs": [
        {
          "internalType": "address",
          "name": "_receiver",
          "type": "address"
        },
        {
          "internalType": "uint256",
          "name": "_amount",
          "type": "uint256"
        }
      ],
      "name": "initiatePayment",
      "outputs": [],
      "stateMutability": "nonpayable",
      "type": "function"
    },
    {
      "inputs": [
        {
          "internalType": "uint256",
          "name": "_transactionId",
          "type": "uint256"
        }
      ],
      "name": "completePayment",
      "outputs": [],
      "stateMutability": "nonpayable",
      "type": "function"
    }
  ],
  "bytecode": "0x608060405234801561000f575f80fd5b506107bf8061001d5f395ff3fe608060405234801561000f575f80fd5b506004361061004a575f3560e01c80634f01c6f21461004e578063884d90611461006a5780639ace38c214610086578063b77bf600146100ba575b5f80fd5b61006860048036038101906100639190610497565b6100d8565b005b610084600480360381019061007f919061051c565b610231565b005b6100a0600480360381019061009b9190610497565b6103de565b6040516100b1959493929190610592565b60405180910390f35b6100c261045a565b6040516100cf91906105e3565b60405180910390f35b5f805f8381526020019081526020015f2090503373ffffffffffffffffffffffffffffffffffffffff16816002015f9054906101000a900473ffffffffffffffffffffffffffffffffffffffff1673ffffffffffffffffffffffffffffffffffffffff161461017c576040517f08c379a00000000000000000000000000000000000000000000000000000000081526004016101739061067c565b60405180910390fd5b8060020160149054906101000a900460ff16156101ce576040517f08c379a00000000000000000000000000000000000000000000000000000000081526004016101c5906106e4565b60405180910390fd5b60018160020160146101000a81548160ff0219169083151502179055504281600301819055507f804fbdce9b2b430341d671cd679f22ccb903e9db545bedbbc7da4e6230e2bdb98242604051610225929190610702565b60405180910390a15050565b6001805f8282546102429190610756565b925050819055506040518060a001604052808281526020013373ffffffffffffffffffffffffffffffffffffffff1681526020018373ffffffffffffffffffffffffffffffffffffffff1681526020015f15158152602001428152505f8060015481526020019081526020015f205f820151815f01556020820151816001015f6101000a81548173ffffffffffffffffffffffffffffffffffffffff021916908373ffffffffffffffffffffffffffffffffffffffff1602179055506040820151816002015f6101000a81548173ffffffffffffffffffffffffffffffffffffffff021916908373ffffffffffffffffffffffffffffffffffffffff16021790555060608201518160020160146101000a81548160ff021916908315150217905550608082015181600301559050508173ffffffffffffffffffffffffffffffffffffffff163373ffffffffffffffffffffffffffffffffffffffff167fe064501ff0c8345e3c252ac92add47e0e28225460e48f354750dfda9d72df751600154846040516103d2929190610702565b60405180910390a35050565b5f602052805f5260405f205f91509050805f015490806001015f9054906101000a900473ffffffffffffffffffffffffffffffffffffffff1690806002015f9054906101000a900473ffffffffffffffffffffffffffffffffffffffff16908060020160149054906101000a900460ff16908060030154905085565b60015481565b5f80fd5b5f819050919050565b61047681610464565b8114610480575f80fd5b50565b5f813590506104918161046d565b92915050565b5f602082840312156104ac576104ab610460565b5b5f6104b984828501610483565b91505092915050565b5f73ffffffffffffffffffffffffffffffffffffffff82169050919050565b5f6104eb826104c2565b9050919050565b6104fb816104e1565b8114610505575f80fd5b50565b5f81359050610516816104f2565b92915050565b5f806040838503121561053257610531610460565b5b5f61053f85828601610508565b925050602061055085828601610483565b9150509250929050565b61056381610464565b82525050565b610572816104e1565b82525050565b5f8115159050919050565b61058c81610578565b82525050565b5f60a0820190506105a55f83018861055a565b6105b26020830187610569565b6105bf6040830186610569565b6105cc6060830185610583565b6105d9608083018461055a565b9695505050505050565b5f6020820190506105f65f83018461055a565b92915050565b5f82825260208201905092915050565b7f4f6e6c79207468652072656365697665722063616e20636f6d706c65746520745f8201527f6865207472616e73616374696f6e2e0000000000000000000000000000000000602082015250565b5f610666602f836105fc565b91506106718261060c565b604082019050919050565b5f6020820190508181035f8301526106938161065a565b9050919050565b7f5472616e73616374696f6e20616c726561647920636f6d706c657465642e00005f82015250565b5f6106ce601e836105fc565b91506106d98261069a565b602082019050919050565b5f6020820190508181035f8301526106fb816106c2565b9050919050565b5f6040820190506107155f83018561055a565b610722602083018461055a565b9392505050565b7f4e487b71000000000000000000000000000000000000000000000000000000005f52601160045260245ffd5b5f61076082610464565b915061076b83610464565b925082820190508082111561078357610782610729565b5b9291505056fea264697066735822122045dcbfb470ac28012dfe4b42b15b96b993ad1bc0e858a853846c5eb5e438052e64736f6c63430008140033",
  "immutableReferences": {},
  "source": "// SPDX-License-Identifier: MIT\r\npragma solidity ^0.8.20;\r\n\r\ncontract Payment {\r\n    struct Transaction {\r\n        uint256 amount;\r\n        address sender;\r\n        address receiver;\r\n        bool completed;\r\n        uint256 timestamp;\r\n    }\r\n\r\n    mapping(uint256 => Transaction) public transactions;\r\n    uint256 public transactionCount;\r\n\r\n    event PaymentInitiated(uint256 transactionId, address indexed sender, address indexed receiver, uint256 amount);\r\n    event PaymentCompleted(uint256 transactionId, uint256 timestamp);\r\n\r\n    function initiatePayment(address _receiver, uint256 _amount) public {\r\n        transactionCount += 1;\r\n        transactions[transactionCount] = Transaction(_amount, msg.sender, _receiver, false, block.timestamp);\r\n        emit PaymentInitiated(transactionCount, msg.sender, _receiver, _amount);\r\n    }\r\n\r\n    function completePayment(uint256 _transactionId) public {\r\n        Transaction storage txn = transactions[_transactionId];\r\n        require(txn.receiver == msg.sender, \"Only the receiver can complete the transaction.\");\r\n        require(!txn.completed, \"Transaction already completed.\");\r\n\r\n        txn.completed = true;\r\n        txn.timestamp = block.timestamp;\r\n\r\n        emit PaymentCompleted(_transactionId, block.timestamp);\r\n    }\r\n}",
  "sourcePath": "C:\\Users\\SEC\\OneDrive\\Desktop\\Project\\cross-border-payments\\contracts\\Payment.sol",
  "compiler": {
    "name": "solc",
    "version": "0.8.20+commit.a1b79de6.Emscripten.clang"
  },
  "schemaVersion": "3.4.16",
  "updatedAt": "2024-11-08T23:23:13.370Z",
  "networkType": "ethereum",
  "devdoc": {
    "kind": "dev",
    "methods": {},
    "version": 1
  },
  "userdoc": {
    "kind": "user",
    "methods": {},
    "version": 1
  }
}